{
  "_format": "hh-sol-artifact-1",
  "contractName": "BelinToken",
  "sourceName": "contracts/BelinToken.sol",
  "abi": [
    {
      "inputs": [],
      "stateMutability": "nonpayable",
      "type": "constructor"
    },
    {
      "inputs": [
        {
          "internalType": "address",
          "name": "spender",
          "type": "address"
        },
        {
          "internalType": "uint256",
          "name": "allowance",
          "type": "uint256"
        },
        {
          "internalType": "uint256",
          "name": "needed",
          "type": "uint256"
        }
      ],
      "name": "ERC20InsufficientAllowance",
      "type": "error"
    },
    {
      "inputs": [
        {
          "internalType": "address",
          "name": "sender",
          "type": "address"
        },
        {
          "internalType": "uint256",
          "name": "balance",
          "type": "uint256"
        },
        {
          "internalType": "uint256",
          "name": "needed",
          "type": "uint256"
        }
      ],
      "name": "ERC20InsufficientBalance",
      "type": "error"
    },
    {
      "inputs": [
        {
          "internalType": "address",
          "name": "approver",
          "type": "address"
        }
      ],
      "name": "ERC20InvalidApprover",
      "type": "error"
    },
    {
      "inputs": [
        {
          "internalType": "address",
          "name": "receiver",
          "type": "address"
        }
      ],
      "name": "ERC20InvalidReceiver",
      "type": "error"
    },
    {
      "inputs": [
        {
          "internalType": "address",
          "name": "sender",
          "type": "address"
        }
      ],
      "name": "ERC20InvalidSender",
      "type": "error"
    },
    {
      "inputs": [
        {
          "internalType": "address",
          "name": "spender",
          "type": "address"
        }
      ],
      "name": "ERC20InvalidSpender",
      "type": "error"
    },
    {
      "inputs": [
        {
          "internalType": "address",
          "name": "owner",
          "type": "address"
        }
      ],
      "name": "OwnableInvalidOwner",
      "type": "error"
    },
    {
      "inputs": [
        {
          "internalType": "address",
          "name": "account",
          "type": "address"
        }
      ],
      "name": "OwnableUnauthorizedAccount",
      "type": "error"
    },
    {
      "anonymous": false,
      "inputs": [
        {
          "indexed": true,
          "internalType": "address",
          "name": "owner",
          "type": "address"
        },
        {
          "indexed": true,
          "internalType": "address",
          "name": "spender",
          "type": "address"
        },
        {
          "indexed": false,
          "internalType": "uint256",
          "name": "value",
          "type": "uint256"
        }
      ],
      "name": "Approval",
      "type": "event"
    },
    {
      "anonymous": false,
      "inputs": [
        {
          "indexed": true,
          "internalType": "address",
          "name": "previousOwner",
          "type": "address"
        },
        {
          "indexed": true,
          "internalType": "address",
          "name": "newOwner",
          "type": "address"
        }
      ],
      "name": "OwnershipTransferred",
      "type": "event"
    },
    {
      "anonymous": false,
      "inputs": [
        {
          "indexed": true,
          "internalType": "address",
          "name": "from",
          "type": "address"
        },
        {
          "indexed": true,
          "internalType": "address",
          "name": "to",
          "type": "address"
        },
        {
          "indexed": false,
          "internalType": "uint256",
          "name": "value",
          "type": "uint256"
        }
      ],
      "name": "Transfer",
      "type": "event"
    },
    {
      "inputs": [
        {
          "internalType": "address",
          "name": "owner",
          "type": "address"
        },
        {
          "internalType": "address",
          "name": "spender",
          "type": "address"
        }
      ],
      "name": "allowance",
      "outputs": [
        {
          "internalType": "uint256",
          "name": "",
          "type": "uint256"
        }
      ],
      "stateMutability": "view",
      "type": "function"
    },
    {
      "inputs": [
        {
          "internalType": "address",
          "name": "spender",
          "type": "address"
        },
        {
          "internalType": "uint256",
          "name": "value",
          "type": "uint256"
        }
      ],
      "name": "approve",
      "outputs": [
        {
          "internalType": "bool",
          "name": "",
          "type": "bool"
        }
      ],
      "stateMutability": "nonpayable",
      "type": "function"
    },
    {
      "inputs": [
        {
          "internalType": "address",
          "name": "account",
          "type": "address"
        }
      ],
      "name": "balanceOf",
      "outputs": [
        {
          "internalType": "uint256",
          "name": "",
          "type": "uint256"
        }
      ],
      "stateMutability": "view",
      "type": "function"
    },
    {
      "inputs": [],
      "name": "decimals",
      "outputs": [
        {
          "internalType": "uint8",
          "name": "",
          "type": "uint8"
        }
      ],
      "stateMutability": "view",
      "type": "function"
    },
    {
      "inputs": [],
      "name": "getChainlinkDataFeedLatestAnswer",
      "outputs": [
        {
          "internalType": "int256",
          "name": "",
          "type": "int256"
        }
      ],
      "stateMutability": "view",
      "type": "function"
    },
    {
      "inputs": [
        {
          "internalType": "address",
          "name": "_to",
          "type": "address"
        },
        {
          "internalType": "uint256",
          "name": "_amount",
          "type": "uint256"
        }
      ],
      "name": "mint",
      "outputs": [],
      "stateMutability": "payable",
      "type": "function"
    },
    {
      "inputs": [],
      "name": "name",
      "outputs": [
        {
          "internalType": "string",
          "name": "",
          "type": "string"
        }
      ],
      "stateMutability": "view",
      "type": "function"
    },
    {
      "inputs": [],
      "name": "owner",
      "outputs": [
        {
          "internalType": "address",
          "name": "",
          "type": "address"
        }
      ],
      "stateMutability": "view",
      "type": "function"
    },
    {
      "inputs": [],
      "name": "renounceOwnership",
      "outputs": [],
      "stateMutability": "nonpayable",
      "type": "function"
    },
    {
      "inputs": [],
      "name": "symbol",
      "outputs": [
        {
          "internalType": "string",
          "name": "",
          "type": "string"
        }
      ],
      "stateMutability": "view",
      "type": "function"
    },
    {
      "inputs": [],
      "name": "totalSupply",
      "outputs": [
        {
          "internalType": "uint256",
          "name": "",
          "type": "uint256"
        }
      ],
      "stateMutability": "view",
      "type": "function"
    },
    {
      "inputs": [
        {
          "internalType": "address",
          "name": "to",
          "type": "address"
        },
        {
          "internalType": "uint256",
          "name": "value",
          "type": "uint256"
        }
      ],
      "name": "transfer",
      "outputs": [
        {
          "internalType": "bool",
          "name": "",
          "type": "bool"
        }
      ],
      "stateMutability": "nonpayable",
      "type": "function"
    },
    {
      "inputs": [
        {
          "internalType": "address",
          "name": "from",
          "type": "address"
        },
        {
          "internalType": "address",
          "name": "to",
          "type": "address"
        },
        {
          "internalType": "uint256",
          "name": "value",
          "type": "uint256"
        }
      ],
      "name": "transferFrom",
      "outputs": [
        {
          "internalType": "bool",
          "name": "",
          "type": "bool"
        }
      ],
      "stateMutability": "nonpayable",
      "type": "function"
    },
    {
      "inputs": [
        {
          "internalType": "address",
          "name": "newOwner",
          "type": "address"
        }
      ],
      "name": "transferOwnership",
      "outputs": [],
      "stateMutability": "nonpayable",
      "type": "function"
    }
  ],
  "bytecode": "0x608060405234801561001057600080fd5b50336040518060400160405280600581526020017f42454c494e0000000000000000000000000000000000000000000000000000008152506040518060400160405280600481526020017f42454c3100000000000000000000000000000000000000000000000000000000815250816003908161008d9190610492565b50806004908161009d9190610492565b505050600073ffffffffffffffffffffffffffffffffffffffff168173ffffffffffffffffffffffffffffffffffffffff16036101125760006040517f1e4fbdf700000000000000000000000000000000000000000000000000000000815260040161010991906105a5565b60405180910390fd5b6101218161017c60201b60201c565b5073694aa1769357215de4fac081bf1f309adc325306600660006101000a81548173ffffffffffffffffffffffffffffffffffffffff021916908373ffffffffffffffffffffffffffffffffffffffff1602179055506105c0565b6000600560009054906101000a900473ffffffffffffffffffffffffffffffffffffffff16905081600560006101000a81548173ffffffffffffffffffffffffffffffffffffffff021916908373ffffffffffffffffffffffffffffffffffffffff1602179055508173ffffffffffffffffffffffffffffffffffffffff168173ffffffffffffffffffffffffffffffffffffffff167f8be0079c531659141344cd1fd0a4f28419497f9722a3daafe3b4186f6b6457e060405160405180910390a35050565b600081519050919050565b7f4e487b7100000000000000000000000000000000000000000000000000000000600052604160045260246000fd5b7f4e487b7100000000000000000000000000000000000000000000000000000000600052602260045260246000fd5b600060028204905060018216806102c357607f821691505b6020821081036102d6576102d561027c565b5b50919050565b60008190508160005260206000209050919050565b60006020601f8301049050919050565b600082821b905092915050565b60006008830261033e7fffffffffffffffffffffffffffffffffffffffffffffffffffffffffffffffff82610301565b6103488683610301565b95508019841693508086168417925050509392505050565b6000819050919050565b6000819050919050565b600061038f61038a61038584610360565b61036a565b610360565b9050919050565b6000819050919050565b6103a983610374565b6103bd6103b582610396565b84845461030e565b825550505050565b600090565b6103d26103c5565b6103dd8184846103a0565b505050565b5b81811015610401576103f66000826103ca565b6001810190506103e3565b5050565b601f82111561044657610417816102dc565b610420846102f1565b8101602085101561042f578190505b61044361043b856102f1565b8301826103e2565b50505b505050565b600082821c905092915050565b60006104696000198460080261044b565b1980831691505092915050565b60006104828383610458565b9150826002028217905092915050565b61049b82610242565b67ffffffffffffffff8111156104b4576104b361024d565b5b6104be82546102ab565b6104c9828285610405565b600060209050601f8311600181146104fc57600084156104ea578287015190505b6104f48582610476565b86555061055c565b601f19841661050a866102dc565b60005b828110156105325784890151825560018201915060208501945060208101905061050d565b8683101561054f578489015161054b601f891682610458565b8355505b6001600288020188555050505b505050505050565b600073ffffffffffffffffffffffffffffffffffffffff82169050919050565b600061058f82610564565b9050919050565b61059f81610584565b82525050565b60006020820190506105ba6000830184610596565b92915050565b61193c806105cf6000396000f3fe6080604052600436106100dd5760003560e01c8063715018a61161007f578063a9059cbb11610059578063a9059cbb146102a3578063bea4dfb5146102e0578063dd62ed3e1461030b578063f2fde38b14610348576100dd565b8063715018a6146102365780638da5cb5b1461024d57806395d89b4114610278576100dd565b806323b872dd116100bb57806323b872dd14610175578063313ce567146101b257806340c10f19146101dd57806370a08231146101f9576100dd565b806306fdde03146100e2578063095ea7b31461010d57806318160ddd1461014a575b600080fd5b3480156100ee57600080fd5b506100f7610371565b604051610104919061121b565b60405180910390f35b34801561011957600080fd5b50610134600480360381019061012f91906112d6565b610403565b6040516101419190611331565b60405180910390f35b34801561015657600080fd5b5061015f610426565b60405161016c919061135b565b60405180910390f35b34801561018157600080fd5b5061019c60048036038101906101979190611376565b610430565b6040516101a99190611331565b60405180910390f35b3480156101be57600080fd5b506101c761045f565b6040516101d491906113e5565b60405180910390f35b6101f760048036038101906101f291906112d6565b610468565b005b34801561020557600080fd5b50610220600480360381019061021b9190611400565b610649565b60405161022d919061135b565b60405180910390f35b34801561024257600080fd5b5061024b610691565b005b34801561025957600080fd5b506102626106a5565b60405161026f919061143c565b60405180910390f35b34801561028457600080fd5b5061028d6106cf565b60405161029a919061121b565b60405180910390f35b3480156102af57600080fd5b506102ca60048036038101906102c591906112d6565b610761565b6040516102d79190611331565b60405180910390f35b3480156102ec57600080fd5b506102f5610784565b6040516103029190611470565b60405180910390f35b34801561031757600080fd5b50610332600480360381019061032d919061148b565b610825565b60405161033f919061135b565b60405180910390f35b34801561035457600080fd5b5061036f600480360381019061036a9190611400565b6108ac565b005b606060038054610380906114fa565b80601f01602080910402602001604051908101604052809291908181526020018280546103ac906114fa565b80156103f95780601f106103ce576101008083540402835291602001916103f9565b820191906000526020600020905b8154815290600101906020018083116103dc57829003601f168201915b5050505050905090565b60008061040e610932565b905061041b81858561093a565b600191505092915050565b6000600254905090565b60008061043b610932565b905061044885828561094c565b6104538585856109e0565b60019150509392505050565b60006012905090565b6000610472610784565b9050600081136104b7576040517f08c379a00000000000000000000000000000000000000000000000000000000081526004016104ae90611577565b60405180910390fd5b60006305f5e100826104c991906115f5565b905060008184670de0b6b3a7640000600a6104e4919061165f565b6104ee919061165f565b6104f891906116a1565b90506105396040518060400160405280600d81526020017f657468496e446f6c6c6172733a0000000000000000000000000000000000000081525083610ad4565b6105786040518060400160405280601181526020017f657468496e446f6c6c61727355696e743a00000000000000000000000000000081525083610ad4565b6105b76040518060400160405280601381526020017f65787065637465645072696365496e5765693a0000000000000000000000000081525082610ad4565b6105f66040518060400160405280600f81526020017f76616c75652070726f76696465643a000000000000000000000000000000000081525034610ad4565b803411610638576040517f08c379a000000000000000000000000000000000000000000000000000000000815260040161062f9061171e565b60405180910390fd5b6106428585610b70565b5050505050565b60008060008373ffffffffffffffffffffffffffffffffffffffff1673ffffffffffffffffffffffffffffffffffffffff168152602001908152602001600020549050919050565b610699610bf2565b6106a36000610c79565b565b6000600560009054906101000a900473ffffffffffffffffffffffffffffffffffffffff16905090565b6060600480546106de906114fa565b80601f016020809104026020016040519081016040528092919081815260200182805461070a906114fa565b80156107575780601f1061072c57610100808354040283529160200191610757565b820191906000526020600020905b81548152906001019060200180831161073a57829003601f168201915b5050505050905090565b60008061076c610932565b90506107798185856109e0565b600191505092915050565b600080600660009054906101000a900473ffffffffffffffffffffffffffffffffffffffff1673ffffffffffffffffffffffffffffffffffffffff1663feaf968c6040518163ffffffff1660e01b815260040160a060405180830381865afa1580156107f4573d6000803e3d6000fd5b505050506040513d601f19601f8201168201806040525081019061081891906117c1565b5050509150508091505090565b6000600160008473ffffffffffffffffffffffffffffffffffffffff1673ffffffffffffffffffffffffffffffffffffffff16815260200190815260200160002060008373ffffffffffffffffffffffffffffffffffffffff1673ffffffffffffffffffffffffffffffffffffffff16815260200190815260200160002054905092915050565b6108b4610bf2565b600073ffffffffffffffffffffffffffffffffffffffff168173ffffffffffffffffffffffffffffffffffffffff16036109265760006040517f1e4fbdf700000000000000000000000000000000000000000000000000000000815260040161091d919061143c565b60405180910390fd5b61092f81610c79565b50565b600033905090565b6109478383836001610d3f565b505050565b60006109588484610825565b90507fffffffffffffffffffffffffffffffffffffffffffffffffffffffffffffffff81146109da57818110156109ca578281836040517ffb8f41b20000000000000000000000000000000000000000000000000000000081526004016109c19392919061183c565b60405180910390fd5b6109d984848484036000610d3f565b5b50505050565b600073ffffffffffffffffffffffffffffffffffffffff168373ffffffffffffffffffffffffffffffffffffffff1603610a525760006040517f96c6fd1e000000000000000000000000000000000000000000000000000000008152600401610a49919061143c565b60405180910390fd5b600073ffffffffffffffffffffffffffffffffffffffff168273ffffffffffffffffffffffffffffffffffffffff1603610ac45760006040517fec442f05000000000000000000000000000000000000000000000000000000008152600401610abb919061143c565b60405180910390fd5b610acf838383610f16565b505050565b610b6c8282604051602401610aea929190611873565b6040516020818303038152906040527fb60e72cc000000000000000000000000000000000000000000000000000000007bffffffffffffffffffffffffffffffffffffffffffffffffffffffff19166020820180517bffffffffffffffffffffffffffffffffffffffffffffffffffffffff838183161783525050505061113b565b5050565b600073ffffffffffffffffffffffffffffffffffffffff168273ffffffffffffffffffffffffffffffffffffffff1603610be25760006040517fec442f05000000000000000000000000000000000000000000000000000000008152600401610bd9919061143c565b60405180910390fd5b610bee60008383610f16565b5050565b610bfa610932565b73ffffffffffffffffffffffffffffffffffffffff16610c186106a5565b73ffffffffffffffffffffffffffffffffffffffff1614610c7757610c3b610932565b6040517f118cdaa7000000000000000000000000000000000000000000000000000000008152600401610c6e919061143c565b60405180910390fd5b565b6000600560009054906101000a900473ffffffffffffffffffffffffffffffffffffffff16905081600560006101000a81548173ffffffffffffffffffffffffffffffffffffffff021916908373ffffffffffffffffffffffffffffffffffffffff1602179055508173ffffffffffffffffffffffffffffffffffffffff168173ffffffffffffffffffffffffffffffffffffffff167f8be0079c531659141344cd1fd0a4f28419497f9722a3daafe3b4186f6b6457e060405160405180910390a35050565b600073ffffffffffffffffffffffffffffffffffffffff168473ffffffffffffffffffffffffffffffffffffffff1603610db15760006040517fe602df05000000000000000000000000000000000000000000000000000000008152600401610da8919061143c565b60405180910390fd5b600073ffffffffffffffffffffffffffffffffffffffff168373ffffffffffffffffffffffffffffffffffffffff1603610e235760006040517f94280d62000000000000000000000000000000000000000000000000000000008152600401610e1a919061143c565b60405180910390fd5b81600160008673ffffffffffffffffffffffffffffffffffffffff1673ffffffffffffffffffffffffffffffffffffffff16815260200190815260200160002060008573ffffffffffffffffffffffffffffffffffffffff1673ffffffffffffffffffffffffffffffffffffffff168152602001908152602001600020819055508015610f10578273ffffffffffffffffffffffffffffffffffffffff168473ffffffffffffffffffffffffffffffffffffffff167f8c5be1e5ebec7d5bd14f71427d1e84f3dd0314c0f7b2291e5b200ac8c7c3b92584604051610f07919061135b565b60405180910390a35b50505050565b600073ffffffffffffffffffffffffffffffffffffffff168373ffffffffffffffffffffffffffffffffffffffff1603610f68578060026000828254610f5c91906118a3565b9250508190555061103b565b60008060008573ffffffffffffffffffffffffffffffffffffffff1673ffffffffffffffffffffffffffffffffffffffff16815260200190815260200160002054905081811015610ff4578381836040517fe450d38c000000000000000000000000000000000000000000000000000000008152600401610feb9392919061183c565b60405180910390fd5b8181036000808673ffffffffffffffffffffffffffffffffffffffff1673ffffffffffffffffffffffffffffffffffffffff16815260200190815260200160002081905550505b600073ffffffffffffffffffffffffffffffffffffffff168273ffffffffffffffffffffffffffffffffffffffff160361108457806002600082825403925050819055506110d1565b806000808473ffffffffffffffffffffffffffffffffffffffff1673ffffffffffffffffffffffffffffffffffffffff168152602001908152602001600020600082825401925050819055505b8173ffffffffffffffffffffffffffffffffffffffff168373ffffffffffffffffffffffffffffffffffffffff167fddf252ad1be2c89b69c2b068fc378daa952ba7f163c4a11628f55a4df523b3ef8360405161112e919061135b565b60405180910390a3505050565b6111528161114a611155611176565b63ffffffff16565b50565b60006a636f6e736f6c652e6c6f679050600080835160208501845afa505050565b611181819050919050565b6111896118d7565b565b600081519050919050565b600082825260208201905092915050565b60005b838110156111c55780820151818401526020810190506111aa565b60008484015250505050565b6000601f19601f8301169050919050565b60006111ed8261118b565b6111f78185611196565b93506112078185602086016111a7565b611210816111d1565b840191505092915050565b6000602082019050818103600083015261123581846111e2565b905092915050565b600080fd5b600073ffffffffffffffffffffffffffffffffffffffff82169050919050565b600061126d82611242565b9050919050565b61127d81611262565b811461128857600080fd5b50565b60008135905061129a81611274565b92915050565b6000819050919050565b6112b3816112a0565b81146112be57600080fd5b50565b6000813590506112d0816112aa565b92915050565b600080604083850312156112ed576112ec61123d565b5b60006112fb8582860161128b565b925050602061130c858286016112c1565b9150509250929050565b60008115159050919050565b61132b81611316565b82525050565b60006020820190506113466000830184611322565b92915050565b611355816112a0565b82525050565b6000602082019050611370600083018461134c565b92915050565b60008060006060848603121561138f5761138e61123d565b5b600061139d8682870161128b565b93505060206113ae8682870161128b565b92505060406113bf868287016112c1565b9150509250925092565b600060ff82169050919050565b6113df816113c9565b82525050565b60006020820190506113fa60008301846113d6565b92915050565b6000602082840312156114165761141561123d565b5b60006114248482850161128b565b91505092915050565b61143681611262565b82525050565b6000602082019050611451600083018461142d565b92915050565b6000819050919050565b61146a81611457565b82525050565b60006020820190506114856000830184611461565b92915050565b600080604083850312156114a2576114a161123d565b5b60006114b08582860161128b565b92505060206114c18582860161128b565b9150509250929050565b7f4e487b7100000000000000000000000000000000000000000000000000000000600052602260045260246000fd5b6000600282049050600182168061151257607f821691505b602082108103611525576115246114cb565b5b50919050565b7f496e76616c696420707269636520666565642076616c75650000000000000000600082015250565b6000611561601883611196565b915061156c8261152b565b602082019050919050565b6000602082019050818103600083015261159081611554565b9050919050565b7f4e487b7100000000000000000000000000000000000000000000000000000000600052601260045260246000fd5b7f4e487b7100000000000000000000000000000000000000000000000000000000600052601160045260246000fd5b600061160082611457565b915061160b83611457565b92508261161b5761161a611597565b5b600160000383147f800000000000000000000000000000000000000000000000000000000000000083141615611654576116536115c6565b5b828205905092915050565b600061166a826112a0565b9150611675836112a0565b9250828202611683816112a0565b9150828204841483151761169a576116996115c6565b5b5092915050565b60006116ac826112a0565b91506116b7836112a0565b9250826116c7576116c6611597565b5b828204905092915050565b7f6e6f7420656e6f756768742066756e64732070726f7669646564000000000000600082015250565b6000611708601a83611196565b9150611713826116d2565b602082019050919050565b60006020820190508181036000830152611737816116fb565b9050919050565b600069ffffffffffffffffffff82169050919050565b61175d8161173e565b811461176857600080fd5b50565b60008151905061177a81611754565b92915050565b61178981611457565b811461179457600080fd5b50565b6000815190506117a681611780565b92915050565b6000815190506117bb816112aa565b92915050565b600080600080600060a086880312156117dd576117dc61123d565b5b60006117eb8882890161176b565b95505060206117fc88828901611797565b945050604061180d888289016117ac565b935050606061181e888289016117ac565b925050608061182f8882890161176b565b9150509295509295909350565b6000606082019050611851600083018661142d565b61185e602083018561134c565b61186b604083018461134c565b949350505050565b6000604082019050818103600083015261188d81856111e2565b905061189c602083018461134c565b9392505050565b60006118ae826112a0565b91506118b9836112a0565b92508282019050808211156118d1576118d06115c6565b5b92915050565b7f4e487b7100000000000000000000000000000000000000000000000000000000600052605160045260246000fdfea2646970667358221220f9daaa8048f53741a188e9af1cfa48f0b38eb0c6aaa50e974e51fdee5b42bb1764736f6c634300081b0033",
  "linkReferences": {},
  "deployedLinkReferences": {}
}